:03000000020008F3
:0300610002000397
:050003001200FC80FE6C
:04006400AE82AF8336
:08006800BE0005BF0002801874
:020070007D62AF
:07007200ED60047C01800237
:020079007C0009
:06007B00EC60031D80F1A2
:050081001EBEFF011F7F
:0200860080E018
:0400880090000022C2
:04008C00AE82AF830E
:0E009000C3EE9480EF6480948050268E05EDC0
:0E009E00F4FD8DA0EFCE25E0CE33FFBE0105B0
:0500AC00BF000280DF2F
:0E00B100900064C007C006120064D006D0079D
:0200BF0080CFF0
:0500C1008E828F8322F6
:0400C600AE82AF83D4
:0E00CA00C3EE9401EF6480948040228E05ED19
:0E00D800F4FD8DA0EFA2E713CE13CEFF4E6015
:0E00E600E3900064C007C006120064D006D08C
:0300F4000780D3AF
:0500F7008E828F8322C0
:0400FC007E017F0002
:07010000EE4F70037E01FFCA
:0E0107008E828F8312008C1200C6AE82AF83F0
:0201150080E97F
:06003700E478FFF6D8FD9D
:080015007900E94400601B7A48
:05001D000090011B78BA
:030022000075A0C6
:0A00250000E493F2A308B8000205FE
:08002F00A0D9F4DAF275A0FF7C
:08003D007800E84400600A7934
:030045000075A0A3
:0600480000E4F309D8FCFE
:08004E007800E84400600C7921
:0B00560000900000E4F0A3D8FCD9FAF1
:03000800758107F8
:0A000B00120117E5826003020003F2
:0401170075820022CB
:00000001FF
