:03000000020008F3
:0300610002000397
:0500030012008C80FEDC
:04006400AE82AF8336
:08006800BE0005BF0002801874
:020070007D62AF
:07007200ED60047C01800237
:020079007C0009
:06007B00EC60031D80F1A2
:050081001EBEFF011F7F
:0200860080E018
:0400880090000022C2
:0E008C007E467F007C467D00D2B1D2B0D2917C
:02009A00D29200
:0E009C0020B024BE460DBF000A7E547F00C275
:0500AA0091D2B0803985
:0E00AF00BE540DBF000A7E467F00D291D2B033
:0200BD00802998
:0400BF00D2B0802516
:0E00C30020B122BC460DBD000A7C547D00C257
:0500D10092D2B1801283
:0E00D600BC540DBD000A7C467D00D292D2B112
:0200E400800298
:0200E600D2B195
:0E00E800900082C007C006C005C0041200646C
:0A00F600D004D005D006D007809C8E
:06003700E478FFF6D8FD9D
:080015007900E94400601B7A48
:05001D000090010478D1
:030022000075A0C6
:0A00250000E493F2A308B8000205FE
:08002F00A0D9F4DAF275A0FF7C
:08003D007800E84400600A7934
:030045000075A0A3
:0600480000E4F309D8FCFE
:08004E007800E84400600C7921
:0B00560000900000E4F0A3D8FCD9FAF1
:03000800758107F8
:0A000B00120100E582600302000309
:0401000075820022E2
:00000001FF
