:03000000020008F3
:0300610002000397
:0500030012006480FE04
:020064007FFE1D
:0E0066008F80900032C00712007DD007EF2F70
:09007400FFE58070ED7FFE80E9DC
:04007D00AE82AF831D
:08008100EE4F60047D018002D6
:020089007D00F8
:05008B00ED60297D2657
:07009000ED60047C01800219
:020097007C00EB
:05009900EC60147C8204
:07009E00EC60047B0180020D
:0200A5007B00DE
:0600A700EB60031C80F178
:0300AD001D80E0D3
:0500B0001EBEFF011F50
:0200B50080CAFF
:0100B7002226
:06003700E478FFF6D8FD9D
:080015007900E94400601B7A48
:05001D00009000BC781A
:030022000075A0C6
:0A00250000E493F2A308B8000205FE
:08002F00A0D9F4DAF275A0FF7C
:08003D007800E84400600A7934
:030045000075A0A3
:0600480000E4F309D8FCFE
:08004E007800E84400600C7921
:0B00560000900000E4F0A3D8FCD9FAF1
:03000800758107F8
:0A000B001200B8E582600302000352
:0400B800758200222B
:00000001FF
