:03000000020008F3
:0300610002000397
:050003001200CF80FE99
:02006400AF8269
:07006600EF60047E0180023F
:02006D007E0013
:05006F00EE60147E6E3E
:07007400EE60047D01800233
:02007B007D0006
:06007D00ED60031E80F19E
:030083001F80E0FB
:010086002257
:0E008700858280C2A6C2A5758205120064C2E1
:0A009500A7758205120064D2A722AD
:0E009F00858280D2A6C2A5758205120064C2B9
:0A00AD00A7758205120064D2A72295
:0E00B70075820112008775823F1200877582E4
:0A00C5000D12008775820602008705
:0B00CF001200B77582901200877F00BE
:0300DA00BF100054
:0E00DD005017EF90013A93F582C00712009F72
:0B00EB00758232120064D0070F80E421
:0800F6007582D01200877F0023
:0300FE00BF100030
:0E0101005017EF90014A93F582C00712009F3D
:0B010F00758232120064D0070F80E4FC
:02011A007F1054
:0E011C00758218C007120087758232120064C7
:0A012A00D0078F061E8E07EF70E865
:0201340080FE4B
:0E013A00202020202032313A32352020202093
:02014800200095
:0E014A0020323031342D31322D3234205745E1
:0301580044200040
:06003700E478FFF6D8FD9D
:080015007900E94400601B7A48
:05001D000090015B787A
:030022000075A0C6
:0A00250000E493F2A308B8000205FE
:08002F00A0D9F4DAF275A0FF7C
:08003D007800E84400600A7934
:030045000075A0A3
:0600480000E4F309D8FCFE
:08004E007800E84400600C7921
:0B00560000900000E4F0A3D8FCD9FAF1
:03000800758107F8
:0A000B00120136E5826003020003D3
:0401360075820022AC
:00000001FF
